:1000000061C0000084C0000082C0000080C0000009
:100010007EC000007CC000007AC0000078C00000F4
:1000200076C0000074C0000072C0000070C0000004
:100030006EC000006CC000006AC0000068C0000014
:100040009BC0000064C0000017C2000060C0000038
:100050005EC000005CC000005AC0000058C0000034
:1000600056C0000054C0000000000000240027001B
:100070002A0000000000250028002B0000000000DE
:1000800023002600290004040404040404040202DA
:100090000202020203030303030301020408102007
:1000A0004080010204081020010204081020000012
:1000B0000007000201000003040600000000000029
:1000C0000000660311241FBECFEFD8E0DEBFCDBF16
:1000D00011E0A0E0B1E0E6EEF9E002C005900D927B
:1000E000A631B107D9F711E0A6E1B1E001C01D9238
:1000F000A63BB107E1F710E0C4ECD0E003C02297C3
:10010000FE016BD4C23CD107D1F7EDD36AC478CFDE
:100110008091000182D10197D9F483EA91E064E4EF
:1001200040E050E0CFD364EF71E080E090E092D007
:1001300083EA91E05DD21816190674F483EA91E01F
:1001400082D28B34910541F48091020161E031C18A
:100150008091020160E02DC108958091000160E06E
:10016000D5D08091020161E0D1D083EA91E040E8EE
:1001700055E260E070E0E1C11F920F920FB60F925E
:1001800011242F933F938F939F93AF93BF938091AD
:100190001A0190911B01A0911C01B0911D01309199
:1001A0001E010196A11DB11D232F2D5F2D3720F0BB
:1001B0002D570196A11DB11D20931E0180931A0198
:1001C00090931B01A0931C01B0931D018091160117
:1001D00090911701A0911801B09119010196A11DEC
:1001E000B11D8093160190931701A0931801B0934D
:1001F0001901BF91AF919F918F913F912F910F90D6
:100200000FBE0F901F9018959FB7F894209116017C
:1002100030911701409118015091190186B5A89BA2
:1002200006C08F3F21F02F5F3F4F4F4F5F4F9FBF63
:10023000542F432F322F2227280F311D411D511DCE
:1002400082E0220F331F441F551F8A95D1F7B90151
:10025000CA010895EF92FF920F931F93CF93DF93FC
:100260007B018C01D1DFEB010DC0CEDF6C1B7D0B60
:10027000685E7340D0F30894E108F10801091109A0
:10028000C851DC4FE114F1040105110571F7CDB738
:10029000DEB7E6E091C3789484B5826084BD84B50E
:1002A000816084BD85B5826085BD85B5816085BD71
:1002B000EEE6F0E0808181608083E1E8F0E010828A
:1002C000808182608083808181608083E0E8F0E0CB
:1002D000808181608083E1EBF0E0808184608083B5
:1002E000E0EBF0E0808181608083EAE7F0E08081EC
:1002F000846080838081826080838081816080834C
:100300008081806880831092C1000895482F50E05A
:10031000CA0186569F4FFC0124914A575F4FFA014C
:1003200084918823C1F0E82FF0E0EE0FFF1FE85919
:10033000FF4FA591B491662341F49FB7F8948C9137
:10034000209582238C939FBF08959FB7F8948C913A
:10035000822B8C939FBF0895833071F0843028F4F2
:100360008130A1F0823021F514C08630B1F08730A1
:10037000D1F08430E9F404C0809180008F7703C00D
:10038000809180008F7D80938000089584B58F7761
:1003900002C084B58F7D84BD08958091B0008F77B1
:1003A0008093B00008958091B0008F7D8093B0005D
:1003B0000895FF920F931F93F62E482F50E0CA0125
:1003C00082559F4FFC012491CA0186569F4FFC0124
:1003D00014914A575F4FFA0104910023D1F0222370
:1003E00011F0822FB9DFE02FF0E0EE0FFF1FEE5883
:1003F000FF4FA591B491FF2031F49FB7F8948C91F1
:100400001095812304C09FB7F8948C91812B8C9315
:100410009FBF1F910F91FF9008950F931F93482F37
:1004200050E0CA0182559F4FFC012491CA018656B3
:100430009F4FFC0104914A575F4FFA011491112319
:1004400019F420E030E014C0222311F0822F84DF61
:10045000812F90E0880F991F84589F4FFC01A59130
:10046000B4918C9120E030E0802311F021E030E065
:10047000C9011F910F9108951F920F920FB60F920D
:1004800011242F933F934F938F939F93EF93FF9359
:100490004091C600E0919F01F091A00131969F012B
:1004A0002F77307031978091A1019091A201281788
:1004B000390739F0E15EFE4F40833093A00120936D
:1004C0009F01FF91EF919F918F914F913F912F91BC
:1004D0000F900FBE0F901F9018958F92AF92CF92F2
:1004E000DF92EF92FF920F931F93DF93CF93CDB7DD
:1004F000DEB7FC0188E091E091838083738362839F
:10050000558344833783268311870087F386E286E9
:10051000D586C486A68687868D85808B8E85818BC1
:100520008F85828BCF91DF911F910F91FF90EF907C
:10053000DF90CF90AF908F900895CF93DF93EC0131
:100540009A01AB01E885F985203081EE380780E01B
:10055000480780E0580709F447C081E090E00A8826
:1005600002C0880F991F0A94E2F7808360E079E067
:100570008DE390E0DED12150304040405040CA0130
:10058000B90122E030E040E050E0D3D1EC81FD81C0
:100590003083EE81FF812083EA85FB85208141E065
:1005A00050E0CA010E8402C0880F991F0A94E2F736
:1005B000282B2083EA85FB852081CA010F8402C095
:1005C000880F991F0A94E2F7282B2083EA85FB8580
:1005D0008081088802C0440F551F0A94E2F7842BDB
:1005E0008083DF91CF910895108220E130E0CECF5B
:1005F000DC011296ED91FC911397E058FF4F219189
:10060000319180819181281B390B2F773070C9017E
:100610000895DC011296ED91FC911397EE57FF4F70
:100620002081318192918291E058F04082179307A6
:1006300019F42FEF3FEF05C0E20FF31F8081282F41
:1006400030E0C9010895DC011296ED91FC911397F9
:10065000DF01AE57BF4F2D913C911197E058FF4FEE
:1006600080819181E058F0408217930719F42FEFB1
:100670003FEF0BC0E20FF31F80812F5F3F4F2F77BB
:1006800030702D933C93282F30E0C9010895DC0190
:100690001296ED91FC911397EE57FF4F8081918157
:1006A000929382930895FC01A085B18521898C9154
:1006B00090E0022E02C0959587950A94E2F780FF9C
:1006C000F6CF0484F585E02D608308958F92AF9274
:1006D000CF92DF92EF92FF920F931F9300D00F9271
:1006E000EDB7FEB7319687E0ADB7BEB711968C93E4
:1006F00085E0818381E0828383EA91E06FE171E0AC
:1007000045EC50E024EC30E000EC10E0B1ECEB2ED6
:10071000F12CA6ECCA2ED12CF4E0AF2EE3E08E2E05
:10072000DCDE0F900F900F901F910F91FF90EF90D4
:10073000DF90CF90AF908F9008950F931F93CF933A
:10074000DF938C01EB0109C02196D801ED91FC915A
:100750000190F081E02DC801099568816623A1F719
:10076000DF91CF911F910F910895EF92FF920F9318
:100770001F93CF93DF938C017B01EA010CC0D7015B
:100780006D917D01D801ED91FC910190F081E02DFA
:10079000C80109952197209791F7CDB7DEB7E6E01C
:1007A0000BC1A0E2B0E0E6EDF3E0DEC01C016A019F
:1007B0007B01411551056105710529F460E340E0B5
:1007C00050E080D04EC0882499245401422E5524F4
:1007D0006624772401E010E00C0F1D1F080D191D81
:1007E000C701B601A301920182D0F8016083089489
:1007F000811C911CA11CB11CC701B601A30192016F
:1008000076D0C901DA016C017D01C114D104E10483
:10081000F10401F781E0E82EF12CEC0EFD1EE80C4E
:10082000F91C3E010894611C711CD501C40101979B
:10083000A109B1096C01C818D90810C0F601EE0D64
:10084000FF1D60816A3010F4605D01C0695CC10108
:1008500040E050E037D00894E108F1086E147F04BE
:1008600069F7A096E2E19CC0EF92FF920F931F936D
:10087000CF93DF93EC017A018B012115310541F40F
:10088000E881F9810190F081E02D642F099516C06F
:100890002A30310591F477FF0CC06DE240E050E062
:1008A00011D010950095F094E094E11CF11C011D0D
:1008B000111DCE01B801A7012AE073DFCDB7DEB765
:1008C000E6E07AC0EF92FF920F931F939A01E62E13
:1008D000FF2400E010E0B801A701C6DF1F910F91CF
:1008E000FF90EF900895D7DC38DC12DCFECFA1E258
:1008F0001A2EAA1BBB1BFD010DC0AA1FBB1FEE1F9A
:10090000FF1FA217B307E407F50720F0A21BB30BE4
:10091000E40BF50B661F771F881F991F1A9469F760
:1009200060957095809590959B01AC01BD01CF01BC
:10093000089597FB092E05260ED057FD04D0D7DF6A
:100940000AD0001C38F450954095309521953F4FC2
:100950004F4F5F4F0895F6F790958095709561958C
:100960007F4F8F4F9F4F08952F923F924F925F92EC
:100970006F927F928F929F92AF92BF92CF92DF92AF
:10098000EF92FF920F931F93CF93DF93CDB7DEB714
:10099000CA1BDB0B0FB6F894DEBF0FBECDBF0994A8
:1009A0002A88398848885F846E847D848C849B84FF
:1009B000AA84B984C884DF80EE80FD800C811B810D
:1009C000AA81B981CE0FD11D0FB6F894DEBF0FBE3C
:1009D000CDBFED010895EE0FFF1F0590F491E02DBE
:0609E0000994F894FFCF1A
:1009E60002000B000000000053039D03B503F8024C
:0609F6002303090347037F
:00000001FF
