:1000000034C0000057C0000055C0000053C00000BD
:1000100051C000004FC000004DC000004BC00000A8
:1000200049C0000047C0000045C0000043C00000B8
:1000300041C000003FC000003DC000003BC00000C8
:10004000C2C0000037C00000ADC1000033C00000D6
:1000500031C000002FC000002DC000002BC00000E8
:1000600029C0000027C00000FC0211241FBECFEFF2
:10007000D8E0DEBFCDBF11E0A0E0B1E0ECE9FEE0EA
:1000800002C005900D92A834B107D9F711E0A8E499
:10009000B1E001C01D92AA3EB107E1F710E0CAE647
:1000A000D0E003C02297FE01F3D6C836D107D1F7BE
:1000B0005ED4F2C6A5CFCF92DF92EF92FF920F935C
:1000C0001F93809133014CD1909349018093480153
:1000D00087EDC82E81E0D82EC60160E071E0F7D22E
:1000E0006091480170914901C6014AE050E095D302
:1000F0006091480170914901882777FD8095982F7C
:100100003ED523E333E343E550E4E9D520E030E096
:1001100040E85AE3E4D57B018C01C60160E171E05F
:10012000D6D2C601B801A70122E030E01ED4C60134
:1001300064E171E0A4D3C801B70120E030E040E001
:100140005FE319D420E030E048EC52E4C8D57B01ED
:100150008C01C601B801A70122E030E006D4C60137
:100160006BE171E08CD3C801B70120E030E040E1E1
:1001700051E4B5D520E030E040EA50E465D420E019
:1001800030E040E052E4F8D3AB01BC01C60122E00C
:1001900030E0EBD3C60166E271E071D368EE73E044
:1001A00080E090E07ED01F910F91FF90EF90DF9064
:1001B000CF90089587ED91E040E855E260E070E06F
:1001C00052D180E0CAC01F920F920FB60F92112435
:1001D0002F933F938F939F93AF93BF9380914E0143
:1001E00090914F01A0915001B09151013091520175
:1001F0000196A11DB11D232F2D5F2D3720F02D5706
:100200000196A11DB11D2093520180934E01909340
:100210004F01A0935001B093510180914A019091F8
:100220004B01A0914C01B0914D010196A11DB11D52
:1002300080934A0190934B01A0934C01B0934D01E0
:10024000BF91AF919F918F913F912F910F900FBED2
:100250000F901F9018959FB7F89420914A01309104
:100260004B0140914C0150914D0186B5A89B06C0B1
:100270008F3F21F02F5F3F4F4F4F5F4F9FBF542F56
:10028000432F322F2227280F311D411D511D82E09F
:10029000220F331F441F551F8A95D1F7B901CA0198
:1002A0000895EF92FF920F931F93CF93DF937B01FB
:1002B0008C01D1DFEB010DC0CEDF6C1B7D0B685EC6
:1002C0007340D0F30894E108F10801091109C851FD
:1002D000DC4FE114F1040105110571F7CDB7DEB76C
:1002E000E6E0C5C5789484B5826084BD84B581603C
:1002F00084BD85B5826085BD85B5816085BDEEE62E
:10030000F0E0808181608083E1E8F0E0108280810C
:1003100082608083808181608083E0E8F0E080817A
:1003200081608083E1EBF0E0808184608083E0EB9A
:10033000F0E0808181608083EAE7F0E08081846082
:1003400080838081826080838081816080838081DE
:10035000806880831092C1000895809335010895CC
:10036000982F8E3008F09E509770809135018295BD
:10037000880F880F807C892B80937C0080917A0085
:10038000806480937A0080917A0086FDFCCF209172
:10039000780040917900942F80E030E0282B392BB1
:1003A000C90108951F920F920FB60F9211242F9337
:1003B0003F934F938F939F93EF93FF934091C6008A
:1003C000E091D301F091D40131969F012F773070E5
:1003D00031978091D5019091D6012817390739F0CE
:1003E000ED5AFE4F40833093D4012093D301FF9107
:1003F000EF919F918F914F913F912F910F900FBE51
:100400000F901F9018958F92AF92CF92DF92EF923C
:10041000FF920F931F93DF93CF93CDB7DEB7FC010D
:100420008AE391E09183808373836283558344835D
:100430003783268311870087F386E286D586C486B4
:10044000A68687868D85808B8E85818B8F85828B16
:10045000CF91DF911F910F91FF90EF90DF90CF90A0
:10046000AF908F900895CF93DF93EC019A01AB0189
:10047000E885F985203081EE380780E0480780E084
:10048000580709F447C081E090E00A8802C0880F4D
:10049000991F0A94E2F7808360E079E08DE390E0B1
:1004A000A3D42150304040405040CA01B90122E05D
:1004B00030E040E050E098D4EC81FD813083EE8163
:1004C000FF812083EA85FB85208141E050E0CA015D
:1004D0000E8402C0880F991F0A94E2F7282B20830C
:1004E000EA85FB852081CA010F8402C0880F991F0D
:1004F0000A94E2F7282B2083EA85FB85808108880F
:1005000002C0440F551F0A94E2F7842B8083DF91C9
:10051000CF910895108220E130E0CECFDC01129619
:10052000ED91FC911397E058FF4F2191319180811B
:100530009181281B390B2F773070C9010895DC0198
:100540001296ED91FC911397EE57FF4F2081318168
:1005500092918291E058F0408217930719F42FEF9F
:100560003FEF05C0E20FF31F8081282F30E0C90163
:100570000895DC011296ED91FC911397DF01AE57BF
:10058000BF4F2D913C911197E058FF4F8081918191
:10059000E058F0408217930719F42FEF3FEF0BC09C
:1005A000E20FF31F80812F5F3F4F2F7730702D9325
:1005B0003C93282F30E0C9010895DC011296ED919B
:1005C000FC911397EE57FF4F808191819293829314
:1005D0000895FC01A085B18521898C9190E0022EBF
:1005E00002C0959587950A94E2F780FFF6CF0484C0
:1005F000F585E02D608308958F92AF92CF92DF92C0
:10060000EF92FF920F931F9300D00F92EDB7FEB7BA
:10061000319687E0ADB7BEB711968C9385E08183A4
:1006200081E0828387ED91E063E571E045EC50E085
:1006300024EC30E000EC10E0B1ECEB2EF12CA6EC59
:10064000CA2ED12CF4E0AF2EE3E08E2EDCDE0F902C
:100650000F900F901F910F91FF90EF90DF90CF9030
:10066000AF908F9008950F931F93CF93DF938C01DA
:10067000EB0109C02196D801ED91FC910190F08128
:10068000E02DC801099568816623A1F7DF91CF911C
:100690001F910F910895EF92FF920F931F93CF93A5
:1006A000DF938C017B01EA010CC0D7016D917D01C4
:1006B000D801ED91FC910190F081E02DC8010995E0
:1006C0002197209791F7CDB7DEB7E6E0D0C3DC01E4
:1006D000ED91FC910280F381E02D09950895A0E24F
:1006E000B0E0E4E7F3E09BC31C016A017B01411524
:1006F00051056105710529F460E340E050E09FD0A9
:100700004EC0882499245401422E5524662477240F
:1007100001E010E00C0F1D1F080D191DC701B601E7
:10072000A30192013FD3F80160830894811C911CBE
:10073000A11CB11CC701B601A301920133D3C901A9
:10074000DA016C017D01C114D104E104F10401F767
:1007500081E0E82EF12CEC0EFD1EE80CF91C3E01A8
:100760000894611C711CD501C4010197A109B1094C
:100770006C01C818D90810C0F601EE0DFF1D60818C
:100780006A3010F4605D01C0695CC10140E050E076
:1007900056D00894E108F1086E147F0469F7A0961A
:1007A000E2E159C3DC012115310541F4ED91FC91E1
:1007B0000190F081E02D642F0995089590CFEF927C
:1007C000FF920F931F93CF93DF93EC017A018B017C
:1007D0002115310541F4E881F9810190F081E02D86
:1007E000642F099516C02A30310591F477FF0CC0AB
:1007F0006DE240E050E023D010950095F094E09435
:10080000E11CF11C011D111DCE01B801A7012AE058
:1008100066DFCDB7DEB7E6E02AC3EF92FF920F9313
:100820001F937B019A010027F7FC0095102FB80158
:10083000A701C5DF1F910F91FF90EF900895EF92F0
:10084000FF920F931F939A01E62EFF2400E010E021
:10085000B801A701B4DF1F910F91FF90EF900895A9
:100860000F931F938C016DE040E050E0E8DFC8017A
:100870006AE040E050E0E3DF1F910F9108950F938D
:100880001F938C0124DFC801EBDF1F910F910895A6
:10089000A0E0B0E0EDE4F4E0C9C2EC017A018B0124
:1008A000922ECB01BA0120E030E040E050E0C8D009
:1008B00088234CF4CE016DE240E050E0C0DF17FB2E
:1008C000109517F9109520E030E040E05FE3AA248E
:1008D0000AC0CA01B90120E030E040E251E4B4D0DE
:1008E0009B01AC01A394A914A0F3C801B70144D0A3
:1008F0005B016C0116D17B018C01CE01B801A7010F
:100900002AE030E04FDF992021F0CE0161E371E071
:10091000DEDEC801B70131D19B01AC01C601B501D2
:100920002AD01DC020E030E040E251E4D8D15B0184
:100930006C01F2D09B01AC017B01CE01B9014AE010
:1009400050E06BDF0027F7FC0095102FC801B701BE
:1009500016D19B01AC01C601B5010DD09A94992026
:1009600009F7CDB7DEB7EBE07DC292CF0895BADCD0
:1009700021DCA1DBFECF5058BB27AA270ED075C1C2
:1009800066D130F06BD120F031F49F3F11F41EF4AA
:100990005BC10EF4E095E7FB51C1E92F77D180F3FD
:1009A000BA17620773078407950718F071F49EF56C
:1009B0008FC10EF4E0950B2EBA2FA02D0B01B901BB
:1009C00090010C01CA01A0011124FF27591B99F0C5
:1009D000593F50F4503E68F11A16F040A22F232FD1
:1009E000342F4427585FF3CF469537952795A79521
:1009F000F0405395C9F77EF41F16BA0B620B730BC8
:100A0000840BBAF09150A1F0FF0FBB1F661F771F38
:100A1000881FC2F70EC0BA0F621F731F841F48F4ED
:100A2000879577956795B795F7959E3F08F0B3CF73
:100A30009395880F08F09927EE0F9795879508955D
:100A4000D9D008F481E008950CD00FC107D140F04F
:100A5000FED030F021F45F3F19F0F0C0511139C1E0
:100A6000F3C014D198F39923C9F35523B1F3951B1F
:100A7000550BBB27AA2762177307840738F09F5FBF
:100A80005F4F220F331F441FAA1FA9F333D00E2E2E
:100A90003AF0E0E830D091505040E695001CCAF79B
:100AA00029D0FE2F27D0660F771F881FBB1F261760
:100AB00037074807AB07B0E809F0BB0B802DBF0133
:100AC000FF2793585F4F2AF09E3F510568F0B6C04C
:100AD00000C15F3FECF3983EDCF386957795679510
:100AE000B795F7959F5FC9F7880F911D96958795E4
:100AF00097F90895E1E0660F771F881FBB1F621703
:100B000073078407BA0720F0621B730B840BBA0BC0
:100B1000EE1F88F7E095089504D06894B111D9C00C
:100B20000895BCD088F09F5790F0B92F9927B751FE
:100B3000A0F0D1F0660F771F881F991F1AF0BA95A1
:100B4000C9F712C0B13081F0C3D0B1E00895C0C080
:100B5000672F782F8827B85F39F0B93FCCF3869597
:100B600077956795B395D9F73EF4909580957095F4
:100B700061957F4F8F4F9F4F0895E89409C097FB71
:100B80003EF490958095709561957F4F8F4F9F4F64
:100B90009923A9F0F92F96E9BB279395F6958795A8
:100BA00077956795B795F111F8CFFAF4BB0F11F46B
:100BB00060FF1BC06F5F7F4F8F4F9F4F16C0882312
:100BC00011F096E911C0772321F09EE8872F762F48
:100BD00005C0662371F096E8862F70E060E02AF089
:100BE0009A95660F771F881FDAF7880F9695879575
:100BF00097F90895990F0008550FAA0BE0E8FEEF4A
:100C000016161706E807F907C0F012161306E407D0
:100C1000F50798F0621B730B840B950B39F40A26C9
:100C200061F0232B242B252B21F408950A2609F4A7
:100C3000A140A6958FEF811D811D089597F99F67AB
:100C400080E870E060E008959FEF80EC0895002454
:100C50000A941616170618060906089500240A9421
:100C600012161306140605060895092E0394000CA7
:100C700011F4882352F0BB0F40F4BF2B11F460FF36
:100C800004C06F5F7F4F8F4F9F4F089557FD90585F
:100C9000440F551F59F05F3F71F04795880F97FB40
:100CA000991F61F09F3F79F08795089512161306FA
:100CB0001406551FF2CF4695F1DF08C01616170629
:100CC0001806991FF1CF869571056105089408955E
:100CD000E894BB2766277727CB0197F908950BD0B7
:100CE000C4CFB5DF28F0BADF18F0952309F0A6CFFE
:100CF000ABCF1124EECFCADFA0F3959FD1F3950FB0
:100D000050E0551F629FF001729FBB27F00DB11D8F
:100D1000639FAA27F00DB11DAA1F649F6627B00D1F
:100D2000A11D661F829F2227B00DA11D621F739F08
:100D3000B00DA11D621F839FA00D611D221F749F16
:100D40003327A00D611D231F849F600D211D822F5D
:100D5000762F6A2F11249F5750408AF0E1F08823A4
:100D60004AF0EE0FFF1FBB1F661F771F881F9150B1
:100D70005040A9F79E3F510570F060CFAACF5F3F6A
:100D8000ECF3983EDCF3869577956795B795F795E4
:100D9000E7959F5FC1F7FE2B880F911D969587956C
:100DA00097F90895A1E21A2EAA1BBB1BFD010DC0E5
:100DB000AA1FBB1FEE1FFF1FA217B307E407F5070B
:100DC00020F0A21BB30BE40BF50B661F771F881FE7
:100DD000991F1A9469F760957095809590959B017D
:100DE000AC01BD01CF01089597FB092E05260ED059
:100DF00057FD04D0D7DF0AD0001C38F45095409539
:100E0000309521953F4F4F4F5F4F0895F6F79095DE
:100E10008095709561957F4F8F4F9F4F08952F92CA
:100E20003F924F925F926F927F928F929F92AF927A
:100E3000BF92CF92DF92EF92FF920F931F93CF93C7
:100E4000DF93CDB7DEB7CA1BDB0B0FB6F894DEBF5E
:100E50000FBECDBF09942A88398848885F846E8484
:100E60007D848C849B84AA84B984C884DF80EE80CE
:100E7000FD800C811B81AA81B981CE0FD11D0FB6D7
:100E8000F894DEBF0FBECDBFED010895EE0FFF1F3A
:0C0E90000590F491E02D0994F894FFCF38
:100E9C0054656D702072656164696E67203D200039
:100EAC00202D200020766F6C7473002064656772AF
:100EBC006573732043002064656772657373204605
:100ECC00002E0001000100000000E90233034B0377
:080EDC008E02B9029F02DD0243
:00000001FF
