:1000000034C0000057C0000055C0000053C00000BD
:1000100051C000004FC000004DC000004BC00000A8
:1000200049C0000047C0000045C0000043C00000B8
:1000300041C000003FC000003DC000003BC00000C8
:100040004BC0000037C0000011C1000033C00000E9
:1000500031C000002FC000002DC000002BC00000E8
:1000600029C0000027C00000600211241FBECFEF8E
:10007000D8E0DEBFCDBF11E0A0E0B1E0EAE1F8E0FA
:1000800002C005900D92A032B107D9F711E0A0E2AD
:10009000B1E001C01D92A03CB107E1F710E0CAE653
:1000A000D0E003C02297FE01B2D3C836D107D1F702
:1000B00034D3B1C3A5CF8DEA91E060E071E024D3E1
:1000C00068EE73E080E090E075C08DEA91E040E872
:1000D00055E260E070E02BC11F920F920FB60F92B5
:1000E00011242F933F938F939F93AF93BF9380914E
:1000F000240190912501A0912601B0912701309112
:1001000028010196A11DB11D232F2D5F2D3720F051
:100110002D570196A11DB11D209328018093240124
:1001200090932501A0932601B0932701809120018F
:1001300090912101A0912201B09123010196A11D6E
:10014000B11D8093200190932101A0932201B093CF
:100150002301BF91AF919F918F913F912F910F906C
:100160000FBE0F901F9018959FB7F8942091200113
:1001700030912101409122015091230186B5A89B25
:1001800006C08F3F21F02F5F3F4F4F4F5F4F9FBF04
:10019000542F432F322F2227280F311D411D511D6F
:1001A00082E0220F331F441F551F8A95D1F7B901F2
:1001B000CA010895EF92FF920F931F93CF93DF939D
:1001C0007B018C01D1DFEB010DC0CEDF6C1B7D0B01
:1001D000685E7340D0F30894E108F1080109110941
:1001E000C851DC4FE114F1040105110571F7CDB7D9
:1001F000DEB7E6E0FBC2789484B5826084BD84B546
:10020000816084BD85B5826085BD85B5816085BD11
:10021000EEE6F0E0808181608083E1E8F0E010822A
:10022000808182608083808181608083E0E8F0E06B
:10023000808181608083E1EBF0E080818460808355
:10024000E0EBF0E0808181608083EAE7F0E080818C
:1002500084608083808182608083808181608083EC
:100260008081806880831092C10008951F920F9250
:100270000FB60F9211242F933F934F938F939F9319
:10028000EF93FF934091C600E091A901F091AA017C
:1002900031969F012F77307031978091AB0190910B
:1002A000AC012817390739F0E75DFE4F40833093E2
:1002B000AA012093A901FF91EF919F918F914F91F6
:1002C0003F912F910F900FBE0F901F9018958F9216
:1002D000AF92CF92DF92EF92FF920F931F93DF9333
:1002E000CF93CDB7DEB7FC0182E191E091838083AB
:1002F0007383628355834483378326831187008702
:10030000F386E286D586C486A68687868D85808B11
:100310008E85818B8F85828BCF91DF911F910F917D
:10032000FF90EF90DF90CF90AF908F900895CF9394
:10033000DF93EC019A01AB01E885F985203081EE6D
:10034000380780E0480780E0580709F447C081E09B
:1003500090E00A8802C0880F991F0A94E2F7808310
:1003600060E079E08DE390E0FED1215030404040E4
:100370005040CA01B90122E030E040E050E0F3D142
:10038000EC81FD813083EE81FF812083EA85FB854E
:10039000208141E050E0CA010E8402C0880F991FFD
:1003A0000A94E2F7282B2083EA85FB852081CA0185
:1003B0000F8402C0880F991F0A94E2F7282B20832C
:1003C000EA85FB858081088802C0440F551F0A9486
:1003D000E2F7842B8083DF91CF910895108220E192
:1003E00030E0CECFDC011296ED91FC911397E058EE
:1003F000FF4F2191319180819181281B390B2F77FB
:100400003070C9010895DC011296ED91FC911397AB
:10041000EE57FF4F2081318192918291E058F04058
:100420008217930719F42FEF3FEF05C0E20FF31F78
:100430008081282F30E0C9010895DC011296ED91EA
:10044000FC911397DF01AE57BF4F2D913C9111974F
:10045000E058FF4F80819181E058F0408217930768
:1004600019F42FEF3FEF0BC0E20FF31F80812F5FD6
:100470003F4F2F7730702D933C93282F30E0C901E8
:100480000895DC011296ED91FC911397EE57FF4F02
:1004900080819181929382930895FC01A085B1851A
:1004A00021898C9190E0022E02C0959587950A943F
:1004B000E2F780FFF6CF0484F585E02D6083089590
:1004C0008F92AF92CF92DF92EF92FF920F931F9392
:1004D00000D00F92EDB7FEB7319687E0ADB7BEB74B
:1004E00011968C9385E0818381E082838DEA91E08F
:1004F00069E271E045EC50E024EC30E000EC10E003
:10050000B1ECEB2EF12CA6ECCA2ED12CF4E0AF2EE0
:10051000E3E08E2EDCDE0F900F900F901F910F9175
:10052000FF90EF90DF90CF90AF908F9008950F9352
:100530001F93CF93DF938C01EB0109C02196D80163
:10054000ED91FC910190F081E02DC8010995688141
:100550006623A1F7DF91CF911F910F910895EF923C
:10056000FF920F931F93CF93DF938C017B01EA01DE
:100570000CC0D7016D917D01D801ED91FC910190E6
:10058000F081E02DC80109952197209791F7CDB70B
:10059000DEB7E6E02BC1DC01ED91FC910280F38136
:1005A000E02D09950895A0E2B0E0E8EDF2E0F6C094
:1005B0001C016A017B01411551056105710529F492
:1005C00060E340E050E080D04EC08824992454017C
:1005D000422E55246624772401E010E00C0F1D1FE5
:1005E000080D191DC701B601A30192019AD0F801A7
:1005F00060830894811C911CA11CB11CC701B60129
:10060000A30192018ED0C901DA016C017D01C114F0
:10061000D104E104F10401F781E0E82EF12CEC0EA5
:10062000FD1EE80CF91C3E010894611C711CD501EB
:10063000C4010197A109B1096C01C818D90810C0FB
:10064000F601EE0DFF1D60816A3010F4605D01C09F
:10065000695CC10140E050E037D00894E108F1083E
:100660006E147F0469F7A096E2E1B4C0EF92FF92A6
:100670000F931F93CF93DF93EC017A018B01211528
:10068000310541F4E881F9810190F081E02D642F7A
:10069000099516C02A30310591F477FF0CC06DE240
:1006A00040E050E011D010950095F094E094E11CEA
:1006B000F11C011D111DCE01B801A7012AE073DF55
:1006C000CDB7DEB7E6E092C0EF92FF920F931F9393
:1006D0009A01E62EFF2400E010E0B801A701C6DF72
:1006E0001F910F91FF90EF9008950F931F938C012E
:1006F0006DE040E050E0E8DFC8016AE040E050E033
:10070000E3DF1F910F9108950F931F938C0143DF37
:10071000C801EBDF1F910F9108956DDDD6DCCBDCB6
:10072000FECFA1E21A2EAA1BBB1BFD010DC0AA1F02
:10073000BB1FEE1FFF1FA217B307E407F50720F04A
:10074000A21BB30BE40BF50B661F771F881F991FC5
:100750001A9469F760957095809590959B01AC010E
:10076000BD01CF01089597FB092E05260ED057FD38
:1007700004D0D7DF0AD0001C38F45095409530954E
:1007800021953F4F4F4F5F4F0895F6F79095809515
:10079000709561957F4F8F4F9F4F08952F923F9295
:1007A0004F925F926F927F928F929F92AF92BF9281
:1007B000CF92DF92EF92FF920F931F93CF93DF932D
:1007C000CDB7DEB7CA1BDB0B0FB6F894DEBF0FBE8A
:1007D000CDBF09942A88398848885F846E847D84D7
:1007E0008C849B84AA84B984C884DF80EE80FD80D9
:1007F0000C811B81AA81B981CE0FD11D0FB6F8944F
:10080000DEBF0FBECDBFED010895EE0FFF1F0590B7
:0A081000F491E02D0994F894FFCF55
:10081A0048656C6C6F2C20776F726C642100000045
:10082A0000004D029702AF02F2011D0203024102CB
:00000001FF
